{
  "contractName": "AndromedaElections",
  "abi": [
    {
      "anonymous": false,
      "inputs": [
        {
          "indexed": true,
          "internalType": "address",
          "name": "votingAccountIndexer",
          "type": "address"
        },
        {
          "indexed": true,
          "internalType": "uint32",
          "name": "myDateIndexer",
          "type": "uint32"
        },
        {
          "indexed": false,
          "internalType": "address",
          "name": "votedAccount",
          "type": "address"
        },
        {
          "indexed": false,
          "internalType": "string",
          "name": "myVote",
          "type": "string"
        }
      ],
      "name": "VoteEvent",
      "type": "event"
    },
    {
      "constant": false,
      "inputs": [
        {
          "internalType": "address",
          "name": "votedAccount",
          "type": "address"
        },
        {
          "internalType": "string",
          "name": "myVote",
          "type": "string"
        },
        {
          "internalType": "uint32",
          "name": "myDate",
          "type": "uint32"
        }
      ],
      "name": "voteCommitted",
      "outputs": [],
      "payable": false,
      "stateMutability": "nonpayable",
      "type": "function"
    }
  ],
  "bytecode": "0x608060405234801561001057600080fd5b50610380806100206000396000f3fe608060405234801561001057600080fd5b506004361061002b5760003560e01c8063d14d99c114610030575b600080fd5b61004a60048036036100459190810190610126565b61004c565b005b8063ffffffff163373ffffffffffffffffffffffffffffffffffffffff167fed5d89e2274b13499d063995f919767d8649bf7830f2a29d5276ac5587d68cbd858560405161009b9291906101d5565b60405180910390a3505050565b6000813590506100b78161030f565b92915050565b600082601f8301126100ce57600080fd5b81356100e16100dc82610232565b610205565b915080825260208301602083018583830111156100fd57600080fd5b6101088382846102bc565b50505092915050565b60008135905061012081610326565b92915050565b60008060006060848603121561013b57600080fd5b6000610149868287016100a8565b935050602084013567ffffffffffffffff81111561016657600080fd5b610172868287016100bd565b925050604061018386828701610111565b9150509250925092565b6101968161027a565b82525050565b60006101a78261025e565b6101b18185610269565b93506101c18185602086016102cb565b6101ca816102fe565b840191505092915050565b60006040820190506101ea600083018561018d565b81810360208301526101fc818461019c565b90509392505050565b6000604051905081810181811067ffffffffffffffff8211171561022857600080fd5b8060405250919050565b600067ffffffffffffffff82111561024957600080fd5b601f19601f8301169050602081019050919050565b600081519050919050565b600082825260208201905092915050565b60006102858261028c565b9050919050565b600073ffffffffffffffffffffffffffffffffffffffff82169050919050565b600063ffffffff82169050919050565b82818337600083830152505050565b60005b838110156102e95780820151818401526020810190506102ce565b838111156102f8576000848401525b50505050565b6000601f19601f8301169050919050565b6103188161027a565b811461032357600080fd5b50565b61032f816102ac565b811461033a57600080fd5b5056fea365627a7a72315820e9bc54bdf7907d0586a51ccec6b85f85c8060281d60fe6caff9a3ebcafc3da5c6c6578706572696d656e74616cf564736f6c63430005100040",
  "source": "pragma solidity >=0.4.22;\r\npragma experimental ABIEncoderV2;\r\n\r\ncontract AndromedaElections{\r\n    \r\n    event VoteEvent(address indexed votingAccountIndexer, uint32 indexed myDateIndexer, address votedAccount, string myVote);\r\n    \r\n    /**\r\n     * Per ogni account ho una struttura contenente due array \"collegati\" tra loro\r\n     * per lo stesso indice i, ho l'account votato e il voto effettuato da msg.sender\r\n     */\r\n    function voteCommitted(address votedAccount, string memory myVote, uint32 myDate) public{\r\n        emit VoteEvent(msg.sender, myDate, votedAccount, myVote);\r\n    }\r\n\r\n    \r\n}",
  "sourcePath": "C:/Users/andrea.mattone/Desktop/andromeda-app/andromeda-contracts/contracts/AndromedaElections.sol",
  "compiler": {
    "name": "solc",
    "version": "0.5.16+commit.9c3226ce.Emscripten.clang"
  },
  "schemaVersion": "3.4.0",
  "updatedAt": "2021-09-07T09:00:50.559Z",
  "networkType": "ethereum",
  "devdoc": {
    "methods": {}
  },
  "userdoc": {
    "methods": {
      "voteCommitted(address,string,uint32)": {
        "notice": "Per ogni account ho una struttura contenente due array \"collegati\" tra loro per lo stesso indice i, ho l'account votato e il voto effettuato da msg.sender"
      }
    }
  }
}